S012000046696E616C5F414441532E73726563B0
S11300000C9432000C94A8050C944F000C944F00EF
S11300100C946C090C9495090C944F000C944F00AB
S11300200C9443090C941A090C944F000C944F003F
S11300300C944F000C944F000C944F000C944F0000
S11300400C944F000C944F000C944F000C94A70890
S11300500C944F00200725072C0733073A07410764
S113006048074F0711241FBECFE5D8E0DEBFCDBF40
S113007010E0A0E6B0E0E6EBFDE102C005900D92D1
S1130080AE3DB107D9F721E0AEEDB0E001C01D925D
S1130090A032B207E1F70E9453010C94D90E0C94DC
S11300A0000064E083E00E94EB020895CF93809106
S11300B0DE0081110FC0C1E0C093DE000E949205F2
S11300C064EF71E080E00E94B807C093DF0080E035
S11300D00E9417050E9451008093FE001092DE00DA
S11300E0CF9108958091FE00813011F40E94AE01F9
S11300F0089541E066E080E00E94C70380E008952F
S11301000E94DF028132934090F041E066E080E09B
S11301100E94440460E070E082E090E00E945F028C
S11301208BE690E00E94C80210926000089540E0BF
S113013066E080E00E94440460E070E082E090E0C9
S11301400E945F028BE790E00E94C80281E08093E6
S1130150600008950E94F10281E690E00E94490344
S113016082E690E00E94E00660E081E690E00E9472
S1130170600360E081E690E00E94600308950E94BD
S1130180F702813071F560E070E083E090E00E9456
S11301905F0281E990E00E94C80264EB81E690E08E
S11301A00E94600364EB81E690E00E94600364E6D1
S11301B070E082E00E94B80760E081E690E00E946F
S11301C0600360E081E690E00E94600364E670E012
S11301D082E00E94B80781E08093E0008093FF00F2
S11301E00EC060E070E083E090E00E945F028EE861
S11301F090E00E94C8021092E0001092FF008091EB
S1130200E0008093E100089540E365E180E10E940D
S1130210FF020895CF93DF9300D01F92CDB7DEB7CE
S113022019821A821B82AE014F5F5F4FBE016E5F5F
S11302307F4FCE0103960E941C0329819A818B81F2
S11302402F771F922F939F771F929F938F711F92E7
S11302508F9386E990E09F938F9380E091E09F9342
S11302608F930E94EF0B60E080E00E945F0285EABA
S113027090E00E94C80280E091E00E94C8022FEF43
S113028083ED90E3215080409040E1F700C00000EE
S11302900FB6F894DEBF0FBECDBF0F900F900F9036
S11302A0DF91CF9108950E947B0241E066E082E0F5
S11302B00E94C70340E063E083E00E94C70340E07C
S11302C064E083E00E94C70385E690E00E94A106F3
S11302D00E94A40546E550E069E080E00E942905FB
S11302E00E94D3050E9404010E94AB030E9479007E
S11302F00E94AA000E94D50206C00E940A010E9420
S113030080000E94BF0063E083E00E94E504813026
S1130310A1F30E94D5028FEA90E00E94C80280E017
S11303200E94170580E00E949606889585B78F770E
S113033085BF0E94D50284EC90E00E94C8020E940E
S113034072002AEA36EE86E991E02150304080407E
S11303509040D9F700000E94B401CCCF41E066E0A0
S113036082E00E944404089540E066E082E00E9436
S11303704404089541E062E080E00E94440485E082
S11303808A95F1F7000040E062E080E00E944404B6
S11303908FE39FE10197F1F700C000000895CF9328
S11303A0C82F8FE99FE00197F1F700C0000040E0FB
S11303B063E080E00E944404C4FB442740F960E009
S11303C081E00E944404C5FB442740F961E081E0D8
S11303D00E944404C6FB442740F962E081E00E9485
S11303E044044C2F441F4427441F64E081E00E94CE
S11303F044040E94BA014C2F417060E081E00E94E5
S11304004404C1FB442740F961E081E00E944404B4
S1130410C2FB442740F962E081E00E944404C3FB2C
S1130420442740F964E081E00E9444040E94BA0138
S1130430CF910895CF93C82F41E063E080E00E94FC
S11304404404C4FB442740F960E081E00E94440472
S1130450C5FB442740F961E081E00E944404C6FBE7
S1130460442740F962E081E00E9444044C2F441F79
S11304704427441F64E081E00E9444040E94BA01BE
S11304804C2F417060E081E00E944404C1FB44278A
S113049040F961E081E00E944404C2FB442740F932
S11304A062E081E00E944404C3FB442740F964E015
S11304B081E00E9444040E94BA01CF9108958130E2
S11304C059F028F0823069F0833081F0089580E893
S11304D0860F0E94CF01089580EC860F0E94CF0101
S11304E0089584E9860F0E94CF01089584ED860F54
S11304F00E94CF01089541E063E080E00E94C703B9
S113050041E062E080E00E94C70341E060E081E0F6
S11305100E94C70341E061E081E00E94C70341E01B
S113052062E081E00E94C70341E064E081E00E9450
S1130530C7032FEF89EF90E0215080409040E1F70E
S113054000C0000083E00E94CF018FE19EE4019788
S1130550F1F700C0000083E00E94CF018FE891E032
S11305600197F1F700C0000083E00E94CF0182E010
S11305700E94CF0188E20E94CF018CE00E94CF014B
S113058060E080E00E945F0208950E941A020895CC
S1130590CF93DF93EC0103C00E94C50221968881AA
S11305A08111FACFDF91CF91089581E00E94CF01AC
S11305B08FE19EE40197F1F700C000000895CF9306
S11305C0DF9380E00E94B603EC010E94D502CE01C5
S11305D0DF91CF9108950E94E504813009F080E015
S11305E0089540E067E080E00E94C703089567E053
S11305F080E00E94E504813009F080E008951F93B3
S1130600CF93DF93C82FD62F142F0E94D90580EDE6
S11306100E94E20580E00E94E205812F0E94E2052B
S11306208D2F0E94E2058C2F0E94E2050E94DF05B7
S1130630DF91CF911F910895EF92FF920F931F9333
S1130640CF93DF93EC018B017A010E94D90580EDF1
S11306500E94E20580E00E94E2050E94D90581ED36
S11306600E94E20581E00E94E905F701808381E0B0
S11306700E94E905F801808380E00E94E9058883EF
S11306800E94DF05DF91CF911F910F91FF90EF90B2
S11306900895CF93DF93EC0188E690E00E94F4057F
S11306A06881607A70E088E690E00E94660668815E
S11306B0677041E083E00E94C703DF91CF91089502
S11306C0CF93DF93EC016A3581F028F4662341F07F
S11306D06E3161F119C0683769F0643B81F014C070
S11306E060E070E08AEF92E425C060E070E08CE3A3
S11306F093E420C060E070E080E593E41BC060E018
S113070070E08AE793E416C070E080E090E00E9415
S1130710CE0A27E339E244E353E40E94BF0925E902
S113072035E648EB5FE30E942B0A04C060E070E00A
S113073082E193E40E949D0A2881207AE22FF0E06E
S11307409B0143EC59E0BF0188E690E00E947A06E1
S1130750DF91CF91089587B1806C87B986B18068A5
S113076086B986B1876086B980E0089597B1907E96
S11307708F71892B87B986B1806486B9349BFECF8B
S113078024B185B190E0982F8827822B0895813079
S113079021F130F08230F1F1833009F458C008952A
S11307A0413059F42AB381E090E002C0880F991FC8
S11307B06A95E2F7822B8ABB08952AB381E090E020
S11307C002C0880F991F6A95E2F78095922F9823AB
S11307D09ABB9BB389238BBB0895413059F427B34B
S11307E081E090E002C0880F991F6A95E2F7822B9E
S11307F087BB089527B381E090E002C0880F991F5A
S11308006A95E2F78095922F982397BB98B3892332
S113081088BB0895413059F424B381E090E002C0CC
S1130820880F991F6A95E2F7822B84BB089524B33D
S113083081E090E002C0880F991F6A95E2F78095E5
S1130840922F982394BB95B3892385BB0895413097
S113085059F421B381E090E002C0880F991F6A9592
S1130860E2F7822B81BB089521B381E090E002C0BE
S1130870880F991F6A95E2F78095922F982391BB70
S113088092B3892382BB0895813001F130F0823024
S1130890B1F1833009F44CC0089541110CC02BB35D
S11308A081E090E002C0880F991F6A95E2F7809575
S11308B082238BBB08952BB381E090E002C0880FA4
S11308C0991F6A95E2F7822B8BBB089541110CC0E6
S11308D028B381E090E002C0880F991F6A95E2F77F
S11308E08095822388BB089528B381E090E002C0FC
S11308F0880F991F6A95E2F7822B88BB08954111EE
S11309000CC025B381E090E002C0880F991F6A955E
S1130910E2F78095822385BB089525B381E090E0BA
S113092002C0880F991F6A95E2F7822B85BB089550
S113093041110CC022B381E090E002C0880F991FDE
S11309406A95E2F78095822382BB089522B381E001
S113095090E002C0880F991F6A95E2F7822B82BB50
S11309600895813089F028F08230C9F0833011F184
S113097008952BB381E090E002C0880F991F6A9517
S1130980E2F782278BBB089528B381E090E002C090
S1130990880F991F6A95E2F7822788BB089525B3CB
S11309A081E090E002C0880F991F6A95E2F78227E0
S11309B085BB089522B381E090E002C0880F991F9F
S11309C06A95E2F7822782BB0895683060F581302A
S11309D079F028F08230A9F08330E1F026C089B3A1
S11309E090E002C0959587956A95E2F78170089525
S11309F086B390E002C0959587956A95E2F7817079
S1130A00089583B390E002C0959587956A95E2F7BF
S1130A108170089580B390E002C0959587956A959A
S1130A20E2F78170089581E0089581E008958F30A0
S1130A3041F08E3151F081110BC08BB780648BBFB4
S1130A4008958BB780688BBF08958BB780628BBF86
S1130A5008958F3099F18E3109F457C0811161C026
S1130A604115510521F05093E3004093E2006630B4
S1130A7081F018F4633031F00895693089F06C30F6
S1130A80B1F0089585B78E7F85BF85B78D7F85BF0B
S1130A90089585B78E7F85BF85B7826085BF089529
S1130AA085B7816085BF85B7826085BF089585B7A6
S1130AB08D7F85BF85B7816085BF0895653181F0DD
S1130AC018F4623131F00895683189F06B31B1F076
S1130AD0089585B78B7F85BF85B7877F85BF0895C8
S1130AE085B78B7F85BF85B7886085BF089585B737
S1130AF0846085BF85B7886085BF089585B7877F83
S1130B0085BF85B7846085BF0895613219F064326A
S1130B1029F0089584B78F7B84BF089584B78064D7
S1130B2084BF08958F3041F08E3151F081110BC094
S1130B308BB78F7B8BBF08958BB78F778BBF08954F
S1130B408BB78F7D8BBF08958FB780688FBF089553
S1130B501F920F920FB60F9211242F933F934F932E
S1130B605F936F937F938F939F93AF93BF93EF9311
S1130B70FF9366E080E00E94B104E091E200F0910E
S1130B80E3000995FF91EF91BF91AF919F918F91F0
S1130B907F916F915F914F913F912F910F900FBE75
S1130BA00F901F90189511B880E280B984E086BF39
S1130BB0089584EA86BF06B607FEFDCF089584E94A
S1130BC086BF089583B984E886BF06B607FEFDCFC5
S1130BD0089520E4829FC0011124846886BF06B66C
S1130BE007FEFDCF83B10895FC018081813089F037
S1130BF020F0823009F45EC0089593B78181892B77
S1130C0083BF83B7887F83BF93B78281892B83BFD8
S1130C1008959FB581818370892B8FBD2EB59181F5
S1130C2096959695892F90E0880F991F880F991FA4
S1130C30880F991F822B8EBD82818230C1F028F4E7
S1130C40882349F0813061F02DC08430F1F0B0F098
S1130C50853011F127C01092E5001092E40022C003
S1130C6081E090E09093E5008093E4001BC088E06D
S1130C7090E09093E5008093E40014C080E490E059
S1130C809093E5008093E4000DC080E091E09093A0
S1130C90E5008093E40006C080E094E09093E500D2
S1130CA08093E4008EB5887F8EBD9EB58281892BAA
S1130CB08EBD089595B58181892B85BD85B5887FC5
S1130CC085BD95B58281892B85BD0895FC01808100
S1130CD0813041F018F0823049F0089583B7682BD1
S1130CE063BF08958FB5682B6FBD089585B5682BD4
S1130CF065BD08958EB580618EBD8EB5877F8EBD2E
S1130D008FB58E7F8FBD8FB58D7F8FBD57BD46BD8F
S1130D10603211F0603319F439BD28BD089560388C
S1130D2011F0603C11F43BBD2ABD089525B730E1B4
S1130D30839FC0011124822B85BF85B7806885BF3E
S1130D4008950097E1F113BE9093FD008093FC0099
S1130D5023B7FC018081822B83BFE091FC00F091DA
S1130D60FD0081818230B9F028F4882341F081307C
S1130D7059F008958430B1F08530D9F00895109277
S1130D80FB001092FA00089581E090E09093FB003C
S1130D908093FA00089588E090E09093FB0080939C
S1130DA0FA00089580E091E09093FB008093FA00AC
S1130DB0089580E094E09093FB008093FA000895F6
S1130DC09093EB008093EA00009709F46EC0FC0155
S1130DD080818823D1F089B78F7789BF89B78F7BCA
S1130DE089BF82B5886082BD14BC15BC82B585708C
S1130DF0E9F795B5E091EA00F091EB008281892B47
S1130E0085BD02B400FCFDCF0CC015BC95B5E091C6
S1130E10EA00F091EB008281892B85BD82B5877F42
S1130E2082BDE091EA00F091EB00E1818E2F90E029
S1130E3088309105D0F5FC01E65DFF4F0C94E90B79
S1130E401092E9001092E800089581E090E09093F8
S1130E50E9008093E800089588E090E09093E90029
S1130E608093E800089580E290E09093E9008093F5
S1130E70E800089580E490E09093E9008093E8000E
S1130E80089580E890E09093E9008093E800089545
S1130E9080E091E09093E9008093E800089580E079
S1130EA094E09093E9008093E80008958130B1F0D4
S1130EB018F0823029F108958091FC009091FD0092
S1130EC0892BC9F183B7887F83BF93B7E091FC0076
S1130ED0F091FD008181892B83BF08958091EC00FE
S1130EE09091ED00892B39F18EB5887F8EBD9EB52A
S1130EF0E091EC00F091ED008181892B8EBD089585
S1130F008091EA009091EB00892BA9F085B5887F48
S1130F1085BD95B5E091EA00F091EB008181892BC4
S1130F2085BDE091EA00F091EB008081882319F0FF
S1130F3002B400FCFDCF0895813041F018F08230F6
S1130F4049F0089583B7887F83BF08958EB5887F5D
S1130F508EBD089585B5887F85BDE091EA00F09146
S1130F60EB008081882319F002B400FCFDCF0895C2
S1130F708F929F92AF92BF92CF92DF92EF92FF92A5
S1130F80CF937B01882321F0823009F45BC0D5C064
S1130F906091FA007091FB0080E090E00E94CC0A1E
S1130FA09B01AC0160E070E08AE796E40E942B0AA2
S1130FB04B015C01B70180E090E00E94CC0A9B01E8
S1130FC0AC01C501B4010E945A0B0E949D0A6B0139
S1130FD07C01C9B7C17089B78B7F89BF80E00E944B
S1130FE09C0780E00E9456078FEFC816D104E104E5
S1130FF0F10409F020F482B78C15E8F31FC0C7018F
S1131000B6012FEF30E040E050E00E94C70B6901C9
S11310107A0180E090E0DC0108C008B600FEFDCF54
S113102031E038BF0196A11DB11DB701A6016627A5
S1131030772784179507A607B70778F389B7C82BCE
S1131040C9BF7BC0E091EA00F091EB008081882366
S113105041F00F2E812C912CA12CF2E4BF2EF02D07
S113106008C00F2E812C912CFAE7AF2EF6E4BF2E88
S1131070F02D6091E8007091E90080E090E00E941A
S1131080CC0A9B01AC01C501B4010E942B0A4B019F
S11310905C01B70180E090E00E94CC0A9B01AC01A6
S11310A0C501B4010E945A0B0E949D0A6B017C0188
S11310B089B786FBCC27C0F989B78F7B89BF82E0CB
S11310C00E949C0782E00E9456078FEFC816D10445
S11310D0E104F10409F020F484B58C15E8F31FC091
S11310E0C701B6012FEF30E040E050E00E94C70B8B
S11310F069017A0180E090E0DC0108C008B606FED0
S1131100FDCF30E438BF0196A11DB11DB701A60182
S11311106627772784179507A607B70778F329B7B3
S11311208C2F90E000249695879507949695879543
S11311300794982F802D822B89BFCF91FF90EF9039
S1131140DF90CF90BF90AF909F908F9008951F92A3
S11311500F920FB60F9211242F933F934F935F93E7
S11311606F937F938F939F93AF93BF93EF93FF936B
S11311708091F90081111BC08091E6009091E700F5
S11311802091F7003091F8008217930730F401960C
S11311909093E7008093E6003AC0E0911E01F0913D
S11311A01F0109951092E7001092E60030C08130CB
S11311B0F1F48091E6009091E7002091F7003091DE
S11311C0F8008217930730F401969093E700809318
S11311D0E6001DC0E0911A01F0911B0109951092DF
S11311E0E7001092E60080E00E949C0710C0809106
S11311F0F600811107C08091EE008CBF81E08093DE
S1131200F60005C08091F2008CBF1092F60082E0D7
S113121088BFFF91EF91BF91AF919F918F917F9183
S11312206F915F914F913F912F910F900FBE0F904F
S11312301F9018951F920F920FB60F9211242F939F
S11312403F934F935F936F937F938F939F93AF934A
S1131250BF93EF93FF93E0911C01F0911D01099559
S113126081E088BFFF91EF91BF91AF919F918F91E2
S11312707F916F915F914F913F912F910F900FBE8E
S11312800F901F9018951F920F920FB60F92112472
S11312902F933F934F935F936F937F938F939F937A
S11312A0AF93BF93EF93FF93E0911601F091170171
S11312B0099584E088BFFF91EF91BF91AF919F9111
S11312C08F917F916F915F914F913F912F910F90EB
S11312D00FBE0F901F9018951F920F920FB60F928A
S11312E011242F933F934F935F936F937F938F9327
S11312F09F93AF93BF93EF93FF93E0911801F09105
S11313001901099580E488BFFF91EF91BF91AF91D6
S11313109F918F917F916F915F914F913F912F9109
S11313200F900FBE0F901F9018951F920F920FB63B
S11313300F9211242F933F934F935F936F937F9357
S11313408F939F93AF93BF93EF93FF93E091140117
S1131350F0911501099580E288BFFF91EF91BF914B
S1131360AF919F918F917F916F915F914F913F9139
S11313702F910F900FBE0F901F9018955058BB27B8
S1131380AA270E94D6090C94200B0E94120B38F055
S11313900E94190B20F039F49F3F19F426F40C94A1
S11313A00F0B0EF4E095E7FB0C94090BE92F0E9458
S11313B0310B58F3BA17620773078407950720F0B7
S11313C079F4A6F50C94530B0EF4E0950B2EBA2F7A
S11313D0A02D0B01B90190010C01CA01A001112437
S11313E0FF27591B99F0593F50F4503E68F11A16E3
S11313F0F040A22F232F342F4427585FF3CF469574
S113140037952795A795F0405395C9F77EF41F1695
S1131410BA0B620B730B840BBAF09150A1F0FF0F5F
S1131420BB1F661F771F881FC2F70EC0BA0F621F4B
S1131430731F841F48F4879577956795B795F7953B
S11314409E3F08F0B0CF9395880F08F09927EE0FD0
S11314509795879508950E943F0A0C94200B0E944B
S1131460190B58F00E94120B40F029F45F3F29F049
S11314700C94090B51110C94540B0C940F0B0E94F7
S1131480310B68F39923B1F3552391F3951B550B55
S1131490BB27AA2762177307840738F09F5F5F4F43
S11314A0220F331F441FAA1FA9F335D00E2E3AF082
S11314B0E0E832D091505040E695001CCAF72BD09A
S11314C0FE2F29D0660F771F881FBB1F26173707EB
S11314D04807AB07B0E809F0BB0B802DBF01FF271D
S11314E093585F4F3AF09E3F510578F00C94090BE6
S11314F00C94540B5F3FE4F3983ED4F386957795B0
S11315006795B795F7959F5FC9F7880F911D9695D5
S1131510879597F90895E1E0660F771F881FBB1F31
S1131520621773078407BA0720F0621B730B840BDE
S1131530BA0BEE1F88F7E09508950E94390B88F0E6
S11315409F5798F0B92F9927B751B0F0E1F0660F83
S1131550771F881F991F1AF0BA95C9F714C0B130C4
S113156091F00E94530BB1E008950C94530B672F34
S1131570782F8827B85F39F0B93FCCF386957795F3
S11315806795B395D9F73EF49095809570956195DC
S11315907F4F8F4F9F4F0895E89409C097FB3EF407
S11315A090958095709561957F4F8F4F9F4F9923AC
S11315B0A9F0F92F96E9BB279395F695879577952A
S11315C06795B795F111F8CFFAF4BB0F11F460FFEA
S11315D01BC06F5F7F4F8F4F9F4F16C0882311F042
S11315E096E911C0772321F09EE8872F762F05C056
S11315F0662371F096E8862F70E060E02AF09A95F1
S1131600660F771F881FDAF7880F9695879597F9E5
S1131610089597F99F6780E870E060E008959FEF70
S113162080EC089500240A94161617061806090675
S1131630089500240A941216130614060506089544
S1131640092E0394000C11F4882352F0BB0F40F4CC
S1131650BF2B11F460FF04C06F5F7F4F8F4F9F4F0C
S1131660089557FD9058440F551F59F05F3F71F08E
S11316704795880F97FB991F61F09F3F79F08795F5
S11316800895121613061406551FF2CF4695F1DF7E
S113169008C0161617061806991FF1CF869571050E
S11316A0610508940895E894BB2766277727CB0142
S11316B097F908950E946D0B0C94200B0E94120B55
S11316C038F00E94190B20F0952311F00C94090BAB
S11316D00C940F0B11240C94540B0E94310B70F3D7
S11316E0959FC1F3950F50E0551F629FF001729FC3
S11316F0BB27F00DB11D639FAA27F00DB11DAA1FD2
S1131700649F6627B00DA11D661F829F2227B00D1E
S1131710A11D621F739FB00DA11D621F839FA00DA9
S1131720611D221F749F3327A00D611D231F849FF9
S1131730600D211D822F762F6A2F11249F57504050
S11317409AF0F1F088234AF0EE0FFF1FBB1F661FCB
S1131750771F881F91505040A9F79E3F510580F094
S11317600C94090B0C94540B5F3FE4F3983ED4F3B0
S1131770869577956795B795F795E7959F5FC1F738
S1131780FE2B880F911D9695879597F90895A1E2F0
S11317901A2EAA1BBB1BFD010DC0AA1FBB1FEE1FE7
S11317A0FF1FA217B307E407F50720F0A21BB30B32
S11317B0E40BF50B661F771F881F991F1A9469F7AE
S11317C060957095809590959B01AC01BD01CF010A
S11317D00895EE0FFF1F0590F491E02D0994AEE0FB
S11317E0B0E0E5EFFBE00C94B00E0D891E8986E0B5
S11317F08C831A8309838FEF9FE79E838D83AE01C9
S1131800475E5F4F6F89788DCE0101960E94110C5F
S1131810EF81F885E00FF11F10822E96E4E00C941E
S1131820CC0EABE0B0E0E7E1FCE00C94A20E6C015E
S11318307B018A01FC0117821682838181FFCCC15E
S1131840CE0101963C01F6019381F70193FD859148
S113185093FF81917F01882309F4BAC1853239F459
S113186093FD859193FF81917F01853229F4B6011F
S113187090E00E94080EE7CF912C212C312CFFE13F
S1131880F315D8F08B3279F038F4803279F0833262
S1131890A1F4232D20611DC08D3261F0803369F4E1
S11318A0232D216016C0832D8260382EE32DE46041
S11318B03E2E2AC0F32DF8601DC037FC2DC020ED4C
S11318C0280F2A3040F08E32B9F436FC81C1232D22
S11318D02064322E19C036FE06C08AE0989E200D80
S11318E01124922E11C0EAE02E9E200D1124222EE6
S11318F0F32DF0623F2E08C08C3621F4832D8068CE
S1131900382E02C0883641F4F70193FD859193FF88
S113191081917F018111B3CF982F9F7D955493308E
S113192028F40C5F1F4F9FE399830DC0833631F079
S1131930833771F0833509F059C021C0F8018081E3
S113194089830E5F1F4F88248394912C530113C005
S11319502801F2E04F0E511CF801A080B18036FE40
S113196003C0692D70E002C06FEF7FEFC5010E94D4
S1131970FD0D4C018201F32DFF773F2E16C0280187
S113198022E0420E511CF801A080B18036FE03C053
S1131990692D70E002C06FEF7FEFC5010E94F20D68
S11319A04C01F32DF0683F2E820133FC1BC0822DC5
S11319B090E088169906B0F4B60180E290E00E94A7
S11319C0080E2A94F4CFF50137FC859137FE8191F6
S11319D05F01B60190E00E94080E21102A9421E0D4
S11319E0821A91088114910471F7E8C0843611F0C9
S11319F0893641F5F80137FE07C060817181828123
S1131A0093810C5F1F4F08C060817181072E000C09
S1131A10880B990B0E5F1F4FF32DFF763F2E97FF18
S1131A2009C090958095709561957F4F8F4F9F4F1A
S1131A30F0683F2E2AE030E0A3010E94440E882E75
S1131A40861845C0853731F4232D2F7EB22E2AE027
S1131A5030E025C0932D997FB92E8F36C1F018F44C
S1131A60883579F0B5C0803719F0883721F0B0C0D7
S1131A70E92FE061BE2EB4FE0DC0FB2DF460BF2E35
S1131A8009C034FE0AC0292F2660B22E06C028E001
S1131A9030E005C020E130E002C020E132E0F8018E
S1131AA0B7FE07C060817181828193810C5F1F4FF3
S1131AB006C06081718180E090E00E5F1F4FA3013A
S1131AC00E94440E882E8618FB2DFF773F2E36FE8B
S1131AD00DC0232D2E7FA22E891458F434FE0BC082
S1131AE032FC09C0832D8E7EA82E05C0B82CA32CF1
S1131AF003C0B82C01C0B92CA4FE0FC0FE01E80D30
S1131B00F11D8081803321F49A2D997EA92E09C07C
S1131B10A2FE06C0B394B39404C08A2D867809F05B
S1131B20B394A3FC11C0A0FE06C0B21488F4280C20
S1131B30922C9B180EC0B21460F4B60180E290E0BF
S1131B400E94080EB394F7CFB21418F42B1802C0F5
S1131B50982C212CA4FE10C0B60180E390E00E94D2
S1131B60080EA2FE17C0A1FC03C088E790E002C0E3
S1131B7088E590E0B6010CC08A2D867859F0A1FE64
S1131B8002C08BE201C080E2A7FC8DE2B60190E0C6
S1131B900E94080E891438F4B60180E390E00E9494
S1131BA0080E9A94F7CF8A94F301E80DF11D808111
S1131BB0B60190E00E94080E8110F5CF222009F4AE
S1131BC042CEB60180E290E00E94080E2A94F6CF3D
S1131BD0F6018681978102C08FEF9FEF2B96E2E199
S1131BE00C94BE0EFC010590615070400110D8F7B2
S1131BF0809590958E0F9F1F0895FC016150704051
S1131C0001900110D8F7809590958E0F9F1F08952D
S1131C100F931F93CF93DF93FB01238121FD03C017
S1131C208FEF9FEF2CC022FF16C04681578124817D
S1131C3035814217530744F4A081B1819D012F5F80
S1131C403F4F318320838C93268137812F5F3F4F11
S1131C503783268314C08B01EC01FB010084F185DA
S1131C60E02D0995892BE1F6D80116968D919C916A
S1131C701797019617969C938E931697CE01DF9132
S1131C80CF911F910F910895FA01AA27283051F19D
S1131C90203181F1E8946F936E7F6E5F7F4F8F4F99
S1131CA09F4FAF4FB1E03ED0B4E03CD0670F781FF8
S1131CB0891F9A1FA11D680F791F8A1F911DA11DDD
S1131CC06A0F711D811D911DA11D20D009F4689416
S1131CD03F912AE0269F11243019305D3193DEF6BE
S1131CE0CF010895462F4770405D4193B3E00FD074
S1131CF0C9F7F6CF462F4F70405D4A3318F0495D5F
S1131D0031FD4052419302D0A9F7EACFB4E0A69541
S1131D109795879577956795BA95C9F70097610563
S1131D20710508959B01AC010A2E069457954795B9
S1131D3037952795BA95C9F7620F731F841F951FAE
S1131D40A01D08952F923F924F925F926F927F92BF
S1131D508F929F92AF92BF92CF92DF92EF92FF92B7
S1131D600F931F93CF93DF93CDB7DEB7CA1BDB0B63
S1131D700FB6F894DEBF0FBECDBF09942A88398808
S1131D8048885F846E847D848C849B84AA84B9840F
S1131D90C884DF80EE80FD800C811B81AA81B9811B
S1131DA0CE0FD11D0FB6F894DEBF0FBECDBFED012F
S1091DB00895F894FFCF32
S1131DB601C50002000002000109034C696768744A
S1131DC620416374697661746564004C696768745C
S1131DD62044652D416374697661746564004E6FB1
S1131DE6205261696E00253032783A253032783ACD
S1131DF6253032780054696D652069733A20006590
S1131E066E74657220736C656570206D6F646520F1
S1131E162D5F2D00657869742066726F6D20736C72
S1111E26656570206D6F6465205E5F5E000070
S9030000FC
