S01E000073656375697274795F616E74692D7468656976696E672E73726563F8
S11300000C9432000C9442110C944F000C944F0049
S11300100C948E130C94B7130C944F000C94280476
S11300200C9465130C943C130C944F000C944F00E7
S11300300C944F000C944F000C944F000C944F0000
S11300400C944F000C944F000C944F000C94C91264
S11300500C944F0077127C1283128A129112981218
S11300609F12A61211241FBECFE5D8E0DEBFCDBF7C
S113007011E0A0E6B0E0E6E1F1E302C005900D92E4
S1130080AA32B107D9F727E0AAE2B1E001C01D9274
S1130090A43DB207E1F70E94D6010C9489180C9490
S11300A0000064E083E00E94A20E089563E083E010
S11300B00E94A20E089541E066E080E00E94950F40
S11300C008950E9456000197E1F70E94960E81322E
S11300D0934028F141E066E080E00E94121064E65B
S11300E070E080912E0190912F010E94450760E0FD
S11300F070E082E090E00E94160E89E690E00E9493
S11301007F0E20E040E050E060E070E080912E013E
S113011090912F010E94B30610926000D2CF64E642
S113012070E080912E0190912F010E94450740E0DC
S113013066E080E00E94121060E070E082E090E0EF
S11301400E94160E20E040E050E060E070E08091F4
S11301502E0190912F010E94B30689E790E00E943E
S11301607F0E81E080936000ACCF0E94A80E81E6F0
S113017090E00E94170F82E690E00E94371260E040
S113018081E690E00E942E0F60E081E690E00E94FC
S11301902E0F08950E945600019709F069C00E942D
S11301A0AE0E813009F03FC064E670E080912E010C
S11301B090912F010E94450760E070E083E090E099
S11301C00E94160E8FE890E00E947F0E20E040E02F
S11301D050E060E070E080912E0190912F010E9428
S11301E0B30664EB81E690E00E942E0F64EB81E697
S11301F090E00E942E0F84E690E00E94F70B60E0EE
S113020081E690E00E942E0F60E081E690E00E947B
S11302102E0F84E690E00E94F70B81E080932B017F
S11302208093A30721C064E670E080912E01909131
S11302302F010E94450760E070E083E090E00E9497
S1130240160E8CE890E00E947F0E20E040E050E023
S113025060E070E080912E0190912F010E94B3061E
S113026010922B011092A30780912B0180932C01F3
S113027084E690E00E94F70B8DCF45E565E082E0CF
S11302800E94B60E41E162E185E20E94CD0E08951E
S1130290CF93DF9300D01F92CDB7DEB719821A82B5
S11302A01B820E945600019789F5AE014F5F5F4F94
S11302B0BE016E5F7F4FCE0103960E94EA0E298134
S11302C09A818B812F771F922F939F771F929F93F1
S11302D08F711F928F9384E990E09F938F9384EBA7
S11302E097E09F938F930E949F1560E080E00E94A7
S11302F0160E83EA90E00E947F0E84EB97E00E9442
S11303007F0E0FB6F894DEBF0FBECDBF8CE390E036
S11303100E94F70BC6CFCF9380912D0181110EC09F
S1130320C1E0C0932D010E942C1184EF91E00E9442
S1130330F70BC0932A0180E00E94B11020E040E056
S113034050E060E070E080913001909131010E94B2
S1130350B3060E9451008093A20710922D01CF9101
S113036008950E9456008111FCCF64E670E08091EC
S11303702E0190912F010E9445070E948C0E8DEA58
S113038090E00E947F0E20E040E050E060E070E0EA
S113039080912E0190912F010E94B30680E00E946B
S11303A0B11080E00E942C128895DBCFEF92FF926F
S11303B00F930E94320E41E066E082E00E94950FA6
S11303C040E063E083E00E94950F40E064E083E056
S11303D00E94950F0E943E114BE851E069E080E0D5
S11303E00E94C3100E9469110E943D010E94790F6E
S11303F00E945B000E94B5000F2EFAEAEF2EF7E090
S1130400FF2EF02D04E020E030E045E550E06BEDF8
S113041070E081E690E00E947D090F2EF4EAEF2E51
S1130420F7E0FF2EF02D05E020E030E045E550E058
S113043069EE70E08AEC90E00E947D090F2EF6EAE6
S1130440EF2EF7E0FF2EF02D06E020E030E045E54A
S113045050E064EF70E088E491E00E947D090F2E83
S1130460F0EBEF2EF7E0FF2EF02D03E020E030E07C
S113047045E550E061E071E081EB91E00E947D0987
S113048043E060E081E00E94720690933101809322
S1130490300143E060E081E00E94720690932F01F6
S11304A080932E0120E040E050E060E070E00E9484
S11304B0B3060E948C0E82E191E00E947F0E0E949E
S11304C0D6090F91FF90EF900895FC010396928353
S11304D081832FEF3FEF3483238396838583908733
S11304E0878310820895FC01118610860895CF93A6
S11304F0DF93EB01488159814F3F2FEF520721F4DD
S1130500FC01A781B0850DC0DC01139601C0DF0199
S11305101296ED91FC911397208131814217530774
S1130520B0F71296ED91FC911397FB83EA83D58380
S1130530C483BD83AC831396DC93CE9312979987BF
S11305408887FC0120812F5F2083DF91CF9108955C
S1130550CF93DF93FC01A085B185C281D3818481CF
S113056095819D838C83C481D581828193819B8372
S11305708A8311968D919C911297E817F90731F4AB
S11305808481958112969C938E931197118610867F
S11305908C9181508C938C91DF91CF9108951BBCE9
S11305A08CE78ABD8BE08EBD89B7806189BF0895D1
S11305B031E1FC013083319722E220833197A3E3B8
S11305C0A08331976083319770833197108231977C
S11305D060E8608331971082319762E060833197DD
S11305E063E06083319764E06083319765E0608302
S11305F0319766E06083319767E06083319768E004
S11306006083319769E06083319760E1608331975B
S11306103083319732E13083319733E1308331973E
S113062034E13083319735E13083319736E13083DB
S1130630319737E13083319738E13083319739E1AD
S11306403083319730E23083319731E23083319710
S11306502083319723E2208331974083319750835D
S1130660319726E22083319727E22083319728E2CD
S11306702083319729E22083319720E32083319727
S113068021E32083869708950E94CF02A0918A07D0
S1130690B0918B07CD91CDBFDD91DEBFFF91EF917E
S11306A0DF91CF91BF91AF919F918F917F916F9186
S11306B05F914F913F912F911F910F91FF90EF9078
S11306C0DF90CF90BF90AF909F908F907F906F906E
S11306D05F904F903F902F901F900F900FBE0F9000
S11306E0089581E008950F920FB6F8940F921F9227
S11306F011242F923F924F925F926F927F928F922A
S11307009F92AF92BF92CF92DF92EF92FF920F939C
S11307101F932F933F934F935F936F937F938F9385
S11307209F93AF93BF93CF93DF93EF93FF93A091E6
S11307308A07B0918B070DB60D920EB60D920E94EA
S11307400D0CA0918A07B0918B07CD91CDBFDD919F
S1130750DEBFFF91EF91DF91CF91BF91AF919F9158
S11307608F917F916F915F914F913F912F911F9145
S11307700F91FF90EF90DF90CF90BF90AF909F903C
S11307808F907F906F905F904F903F902F901F902D
S11307900F900FBE0F9008950F920FB6F8940F921A
S11307A01F9211242F923F924F925F926F927F92E9
S11307B08F929F92AF92BF92CF92DF92EF92FF926D
S11307C00F931F932F933F934F935F936F937F9355
S11307D08F939F93AF93BF93CF93DF93EF93FF9345
S11307E0A0918A07B0918B070DB60D920EB60D92AB
S11307F00E94080A81110E940D0CA0918A07B091F1
S11308008B07CD91CDBFDD91DEBFFF91EF91DF91DD
S1130810CF91BF91AF919F918F917F916F915F9194
S11308204F913F912F911F910F91FF90EF90DF9087
S1130830CF90BF90AF909F908F907F906F905F907C
S11308404F903F902F901F900F900FBE0F900895E0
S11308500E94CC031895ECE3F1E0A0E4B1E0B1838D
S1130860A08313821282E8E1F7E0F0933B01E09366
S11308703A01138212821182108288ED95E0139658
S11308809C938E931297ED93FC93909337018093EE
S1130890360190933901809338010895CF93DF9303
S11308A0EC01ACE3B1E001C0DF01ED91FC911197E3
S11308B0EC17FD07C8F312968D919C9113979D0137
S11308C0280F391FC217D30749F42A813B81820FAD
S11308D0931F13969C938E931297ED018A819B81AB
S11308E09E01280F391FE217F307C1F420913A0142
S11308F030913B01E217F30771F022813381820FBB
S1130900931F9B838A83ED91FC9111978081918140
S11309109983888305C03983288302C0F983E883D7
S1130920CA17DB0711F0CD93DC93DF91CF910895C3
S1130930EF92FF920F931F93CF93DF938C010E944A
S1130940020A80913A0190913B01892B11F40E9493
S11309502B040115110549F00B3F8FEF180718F40C
S11309600B5F1F4F02C000E010E011230CF466C0BF
S11309700115110509F465C0809138019091390180
S11309808017910708F460C0C0913C01D0913D01EB
S1130990ECE3F1E002C0FE01EC018A819B81801747
S11309A0910720F4888199810097A9F780913A01F1
S11309B090913B01C817D90709F449C0E080F18040
S11309C084E0E80EF11C88819981918380832A81D7
S11309D03B81201B310B2930310550F0CE01800FB3
S11309E0911FFC01338322831B830A830E944E04DC
S11309F02A813B818091380190913901821B930BAC
S1130A009093390180933801409136015091370118
S1130A108417950720F4909337018093360130684A
S1130A203B832A8319821882809134019091350185
S1130A30019690933501809334010BC0E12CF12C85
S1130A4008C0E12CF12C05C0E12CF12C02C0E12CF2
S1130A50F12C0E94220BC701DF91CF911F910F91BE
S1130A60FF90EF9008950F931F93CF93DF93009718
S1130A7049F1EC0124972A813B8133231CF54881F9
S1130A805981452BF9F43F773B832A830E94020A5C
S1130A908A819B812091380130913901820F931F03
S1130AA09093390180933801CE010E944E048091C5
S1130AB03201909133010196909333018093320176
S1130AC00E94220BDF91CF911F910F9108950FB6D1
S1130AD0F8940F92FC01828D811102C081E001C063
S1130AE080E00F900FBE08950FB6F8940F92FC01AA
S1130AF0228D838D281302C081E001C080E00F9015
S1130B000FBE08950F931F93CF93DF93EC01042F2F
S1130B101A8D4C8D4423B9F1011116C050E08A811D
S1130B209B810E9496152C8D8A819B81820F911D39
S1130B309B838A832C813D818217930720F18881CE
S1130B4099819B838A831FC050E08E819F810E947C
S1130B5096158C8D90E09195819591092E813F8118
S1130B60280F391F3F832E83488159812417350765
S1130B7030F42C813D81820F931F9F838E8302303A
S1130B8011F4111111501F5F1A8F80E0DF91CF9182
S1130B901F910F9108951F93CF93DF93EC010FB62C
S1130BA0F8940F921E8D0BC08989882351F0CE01D1
S1130BB041960E94730C81110E946D0D1150111603
S1130BC09CF38FEF8E8F0F900FBE0FB6F8940F9299
S1130BD01D8D0BC08885882351F0CE0108960E9494
S1130BE0730C81110E946D0D115011169CF38FEF3F
S1130BF08D8F0F900FBEDF91CF911F9108950F93AA
S1130C001F93CF93DF93FC01362F892B09F44DC03A
S1130C10238D222309F44BC0022F10E08FEF9FEFA6
S1130C20B8010E947C15448D842F90E068177907E1
S1130C3008F43FC0EF010FB6F8940F926081718100
S1130C40FB01249FE00DF11D1124FD83EC831A8E1A
S1130C507B836A8301501109809FA001819F500DFD
S1130C60909F500D1124CB01840F951F9F838E8379
S1130C708FEF8D8F8E8F31110CC08885882389F07A
S1130C80CE0108960E94730C882359F00E947303C6
S1130C9008C0CE0108960E946502CE0141960E94CA
S1130CA065020F900FBE81E005C080E003C080E0C4
S1130CB001C080E0DF91CF911F910F9108950F93B0
S1130CC01F93F801611103C01183008302C0518393
S1130CD04083838F648F61E0CF010E94FF051F91E1
S1130CE00F910895DF92EF92FF920F931F93CF938A
S1130CF0DF93382FE62F882329F1682F70E08FEFD8
S1130D009FEF0E947C158E2F90E068177907E8F01A
S1130D103E9FC0011124813E2FEF9207C8F4D42EC8
S1130D20DE2FC32F4F960E9498047C01009791F008
S1130D308C012D2DAC01415E5F4F6D2F8C2F0E94D5
S1130D405F0608C0E12CF12C05C0E12CF12C02C097
S1130D50E12CF12CC701DF91CF911F910F91FF90EE
S1130D60EF90DF900895CF92DF92EF92FF920F936E
S1130D701F93CF93DF9300D000D01F92CDB7DEB77F
S1130D808C017B015D834C83C22ED12C0FB6F89469
S1130D900F92F801928D838D981718F0F2E0CF121C
S1130DA019C04C2DB701C8010E948205F801918930
S1130DB0992349F0C80141960E94730C882331F0AD
S1130DC00E94730303C081110E9473030F900FBE2E
S1130DD081E04DC08C819D81892B21F40F900FBE41
S1130DE080E045C0D11006C0CE0101960E94300DAE
S1130DF0DD24D3940F900FBE0E94020A0FB6F8941C
S1130E000F92F801858D8F3F09F4158EF801868DB8
S1130E108F3F09F4168E0F900FBEBE016C5F7F4F9B
S1130E20CE0101960E943B0D81111BC0C8010E9496
S1130E307405882381F06C817D81C80108960E9425
S1130E40610CC8010E94CB050E94220B81119ECF28
S1130E500E9473039BCFC8010E94CB050E94220B02
S1130E6095CFC8010E94CB050E94220B80E00F9011
S1130E700F900F900F900F90DF91CF911F910F91D2
S1130E80FF90EF90DF90CF900895FF920F931F9300
S1130E90CF93DF9300D000D01F92CDB7DEB78C0183
S1130EA07D836C83F12C0FB6F8940F92F801828D38
S1130EB0882381F08150828F8085882339F0C8018E
S1130EC008960E94730C81110E9473030F900FBE49
S1130ED081E053C08C819D81892B21F40F900FBE3A
S1130EE080E04BC0F11006C0CE0101960E94300D87
S1130EF0FF24F3940F900FBE0E94020A0FB6F894D9
S1130F000F92F801858D8F3F09F4158EF801868DB7
S1130F108F3F09F4168E0F900FBEBE016C5F7F4F9A
S1130F20CE0101960E943B0D81111BC0C8010E9495
S1130F306705882381F06C817D81C80141960E94F8
S1130F40610CC8010E94CB050E94220B8111ABCF1A
S1130F500E947303A8CFC8010E94CB050E94220BF4
S1130F60A2CFC8010E94CB050E94220BC8010E9497
S1130F706705882309F497CF80E00F900F900F90B6
S1130F800F900F90DF91CF911F910F91FF900895D3
S1130F90E0914007F09141078081811107C08FEFF4
S1130FA09FEF9093200780931F070895E0914007D7
S1130FB0F09141070580F681E02D80819181909325
S1130FC0200780931F070895CF93DF93EC018F8947
S1130FD0988D0E943305CE010E943305DF91CF9195
S1130FE008956F927F928F929F92AF92BF92CF9209
S1130FF0DF92EF920F931F93CF93DF93CDB7DEB7BA
S11310004C01F5018789908D215031093C01620E14
S1131010731E6115710589F415C0822F90E0FB01E0
S1131020E80FF91F3081D501A80FB91F59963C93D9
S11310308081882329F02F5F01C020E0283068F3E5
S1131040F50110A2F5E0FE1520F40F2EF5E0EF2EC9
S1131050F02DF501E68AC50102960E947302C501CE
S11310600C960E947302F501B186A08686E090E09A
S11310708E19910995878487B38AA28AA801B4013D
S1131080C3010E94D802F50191838083C114D10465
S113109019F0F601B182A082DF91CF911F910F91D7
S11310A0EF90DF90CF90BF90AF909F908F907F9004
S11310B06F900895CF93C0E010C08C2F90E09C01F6
S11310C0220F331F220F331F220F331F820F931F50
S11310D08C5A984F0E946502CF5FC63070F38BE440
S11310E097E00E94650282E497E00E94650285E32E
S11310F097E00E9465028CE297E00E9465028BE40F
S113110097E0909341078093400782E497E090939F
S11311103F0780933E07CF910895CF93DF93EC016F
S11311200FB6F8940F9280912A078F5F80932A0755
S113113080918A0790918B07892B59F4D0938B0760
S1131140C0938A0780912A07813099F40E945A0833
S113115010C08091260781110CC0E0918A07F0919C
S11311608B0796898E89891720F0D0938B07C093BB
S11311708A07809121078F5F809321078E89909140
S11311802707981710F48093270790E0FC01EE0FCF
S1131190FF1FEE0FFF1FEE0FFF1F8E0F9F1FFC019F
S11311A0EC5AF84F0180F281E02DFD83EC838481B9
S11311B095819F838E83A481B581CE010296139677
S11311C09C938E93129795838483EE89F0E0CF01EC
S11311D0880F991F880F991F880F991FE80FF91F0F
S11311E0EC5AF84FFB87EA8780818F5F80830F90EA
S11311F00FBE80912607882351F0E0918A07F09171
S11312008B0796898E89981710F40E947303DF91D7
S1131210CF910895CF93DF931CC00FB6F8940F922B
S1131220E0913107F0913207C681D781CE01029651
S11312300E94A80280912A07815080932A078091F6
S11312402B07815080932B070F900FBECE010E9475
S1131250E40780912B078111E0CFDF91CF910895AE
S11312600E940A09809154078230D0F30E947303CC
S1131270F7CF0F931F93CF93DF93EC0100912807CF
S11312801091290780918A0790918B0702960E94FA
S1131290A802C00FD11FE0918A07F0918B07D38376
S11312A0C283C017D10768F460918A0770918B07D5
S11312B080913E0790913F076E5F7F4F0E947702B7
S11312C017C060918A0770918B07809140079091B5
S11312D041076E5F7F4F0E94770280911F079091B4
S11312E02007C817D90720F4D0932007C0931F07FD
S11312F0DF91CF911F910F9108952F923F924F92BA
S11313005F926F927F928F929F92AF92BF92CF9291
S1131310DF92EF92FF920F931F93CF93DF933C01E1
S11313201B015A012901CA010E9498046C01892BEE
S113133099F086E290E00E949804EC01892B41F038
S113134086E2FE0111928A95E9F7D88ECF8A06C00B
S1131350C6010E94330502C0C0E0D0E0209791F09E
S1131360950140E050E0812C912C5E016701E02E54
S11313708201B101C3010E94F107CE010E948D08D0
S113138081E001C08FEFDF91CF911F910F91FF900A
S1131390EF90DF90CF90BF90AF909F908F907F9011
S11313A06F905F904F903F902F900895EF92FF922F
S11313B00F930F2EFDE1EF2EF7E0FF2EF02D00E04E
S11313C020E030E045E550E064E271E080E399E03C
S11313D00E947D09813081F4F8948FEF9FEF909300
S11313E0200780931F0781E0809326071092290726
S11313F0109228070E944403809165000F91FF908A
S1131400EF90089580911C078F5F80931C070895C7
S11314100F931F93CF93DF9380911C07811101C118
S1131420C0912807D09129078E010F5F1F4F109399
S113143029070093280701151105B9F48091400785
S11314409091410720913E0730913F073093410727
S11314502093400790933F0780933E078091220793
S11314608F5F809322070E94C80780911F07909185
S113147020070817190720F480E0B8C081E001C0F4
S113148080E0E0914007F09141079081911107C0FD
S11314902FEF3FEF3093200720931F07A7C0E09161
S11314A04007F09141070580F681E02D0680F78121
S11314B0E02D228133810217130728F4309320078B
S11314C020931F0793C0A285B3852481358146816B
S11314D05781E9015D834C8326813781448155819D
S11314E0E9015B834A8311962D913C911297AF01D8
S11314F04E5F5F4F2417350731F4268137811296EA
S11315003C932E931197138612869C9191509C9331
S1131510A489B589109719F1268537856089718961
S1131520E9017D836C832089318966857785E901AA
S11315307B836A8311966D917C9112979F01245F3E
S11315403F4F6217730731F42089318912963C9317
S11315502E931197158A148A9C9191509C932689F5
S113156090912707921710F42093270730E0D901B0
S1131570AA0FBB1FAA0FBB1FAA0FBB1F2A0F3B1F1B
S1131580D901AC5AB84F11960D90BC91A02DB583DA
S1131590A48314962D913C91159737832683149632
S11315A02D913C911597E9015B834A8315965C93D1
S11315B04E931497A689B0E09D01220F331F220F8A
S11315C0331F220F331FA20FB31FAC5AB84FB38778
S11315D0A2879C919F5F9C932689E0918A07F09152
S11315E08B079689921708F449CF4BCFE0918A076D
S11315F0F0918B07268930E0F901EE0FFF1FEE0F03
S1131600FF1FEE0FFF1F2E0F3F1FF901EC5AF84F7B
S11316109081923008F081E09091230791110CC0E1
S11316200CC080912407909125070196909325077B
S11316308093240780E001C081E0DF91CF911F9166
S11316400F910895CF93DF930FB6F8940F92809182
S11316501C07815080931C0780911C078111BFC017
S113166080912A07811196C0BDC0E0913A07F0919C
S11316703B070680F781E02DA489B589C685D78507
S1131680808991899D838C83C089D189868597853A
S11316909B838A8311962D913C911297CF010C96CE
S11316A02817390731F48089918912969C938E9377
S11316B01197158A148A8C9181508C93A285B385D5
S11316C0C481D581868197819D838C83C681D7818E
S11316D0848195819B838A8311968D919C91129725
S11316E09F012E5F3F4F8217930731F486819781C4
S11316F012969C938E931197138612868C91815027
S11317008C93868990912707981710F48093270764
S113171090E0DC01AA0FBB1FAA0FBB1FAA0FBB1FBF
S11317208A0F9B1FDC01AC5AB84F11960D90BC91E7
S1131730A02DB583A48314968D919C9115979783BE
S113174086831496CD91DC9115973B832A83159655
S11317503C932E931497A689B0E0CD01880F991F6E
S1131760880F991F880F991FA80FB91FAC5AB84F3B
S1131770B387A2878C918F5F8C939689A0918A07F7
S1131780B0918B0756968C91981730F081E0809336
S1131790230702C0E0E0F0E080913507811165CFB6
S11317A0EF2B11F00E94C807C0912407D0912507A0
S11317B0209769F00E94080A882319F081E0809339
S11317C023072197B9F710922507109224078091D7
S11317D02307882331F00E94730381E003C080E073
S11317E001C080E00F900FBEDF91CF910895CF9399
S11317F0DF93EC01892B49F00E94020A60E0CE01DC
S11318000E9439090E94220B01C080E0811102C0AC
S11318100E947303DF91CF91089580911C07882360
S113182021F081E0809323070895109223072091EB
S1131830270701C02150822F90E0FC01EE0FFF1F0B
S1131840EE0FFF1FEE0FFF1FE80FF91FEC5AF84FC2
S11318503081332379F3AC01440F551F440F551FD6
S1131860440F551F480F591FDF010180F281E02DFD
S11318700280F381E02D1296FC93EE931197495A5E
S1131880584FE417F50729F442815381FD0152832F
S11318904183FC01EE0FFF1FEE0FFF1FEE0FFF1F32
S11318A08E0F9F1FFC01EC5AF84F0180F281E02D4E
S11318B08681978190938B0780938A0720932707CB
S11318C00895CF93DF93EB0160918A0770918B07A2
S11318D0645F7F4F0E94770261E0CE010E94390964
S11318E0DF91CF910895CF93DF93DC011596ED91AD
S11318F0FC9116970680F781E02DA489B589C685E9
S1131900D785808991899D838C83C089D189868577
S113191097859B838A8311968D919C9112979F0141
S1131920245F3F4F8217930731F48089918912967F
S11319309C938E931197158A148A8C9181508C9361
S113194080911C07811160C0A285B385C481D581B3
S1131950868197819D838C83C681D781848195817B
S11319609B838A8311968D919C9112979F012E5F80
S11319703F4F8217930731F48681978112969C9387
S11319808E931197138612868C9181508C9386893D
S113199090912707981710F48093270790E0DC01B3
S11319A0AA0FBB1FAA0FBB1FAA0FBB1F8A0F9B1F27
S11319B0DC01AC5AB84F11960D90BC91A02DB583A3
S11319C0A48314968D919C9115979783868314967E
S11319D0CD91DC9115973B832A8315963C932E93E6
S11319E01497A689B0E0CD01880F991F880F991F1D
S11319F0880F991FA80FB91FAC5AB84FB387A28795
S1131A008C918F5F8C931CC045E357E0DA011196EB
S1131A10CD91DC911297D787C6878C819D81918B5C
S1131A20808B8C819D81DC0113963C932E931297BD
S1131A303D832C83558B448BDA018C918F5F8C937F
S1131A409689E0918A07F0918B078689891720F49B
S1131A5081E08093230701C080E0DF91CF91089556
S1131A6020912207FC012083209128073091290727
S1131A70328321830895CF93DF930FB6F8940F92A6
S1131A804091280750912907EC0129813A81DA0114
S1131A90A21BB30BF881E0912207FE1741F0421715
S1131AA0530728F0FB011182108281E011C0EB0181
S1131AB028813981A217B30740F42A1B3B0B3983D1
S1131AC028830E94300D80E003C01982188281E0CF
S1131AD00F900FBEDF91CF91089581E0809323078B
S1131AE0089541E062E080E00E94121085E08A954A
S1131AF0F1F7000040E062E080E00E9412108FE302
S1131B009FE10197F1F700C000000895CF93C82F1B
S1131B108FE99FE00197F1F700C0000040E063E027
S1131B2080E00E941210C4FB442740F960E081E089
S1131B300E941210C5FB442740F961E081E00E9435
S1131B401210C6FB442740F962E081E00E941210A3
S1131B504C2F441F4427441F64E081E00E9412106C
S1131B600E94710D4C2F417060E081E00E941210C0
S1131B70C1FB442740F961E081E00E941210C2FBDE
S1131B80442740F962E081E00E941210C3FB44271D
S1131B9040F964E081E00E9412100E94710DCF911F
S1131BA00895CF93C82F41E063E080E00E941210B3
S1131BB0C4FB442740F960E081E00E941210C5FB99
S1131BC0442740F961E081E00E941210C6FB4427DB
S1131BD040F962E081E00E9412104C2F441F442718
S1131BE0441F64E081E00E9412100E94710D4C2F8A
S1131BF0417060E081E00E941210C1FB442740F96B
S1131C0061E081E00E941210C2FB442740F962E0C7
S1131C1081E00E941210C3FB442740F964E081E094
S1131C200E9412100E94710DCF910895813059F0D5
S1131C3028F0823069F0833081F0089580E8860FBF
S1131C400E94860D089580EC860F0E94860D0895EB
S1131C5084E9860F0E94860D089584ED860F0E9404
S1131C60860D089541E063E080E00E94950F41E015
S1131C7062E080E00E94950F41E060E081E00E9414
S1131C80950F41E061E081E00E94950F41E062E040
S1131C9081E00E94950F41E064E081E00E94950F8D
S1131CA02FEF89EF90E0215080409040E1F700C091
S1131CB0000083E00E94860D8FE19EE40197F1F716
S1131CC000C0000083E00E94860D8FE891E0019738
S1131CD0F1F700C0000083E00E94860D82E00E94BC
S1131CE0860D88E20E94860D8CE00E94860D60E0DD
S1131CF080E00E94160E08950E94D10D0895CF939E
S1131D00DF93EC0103C00E947C0E2196888181112F
S1131D10FACFDF91CF91089581E00E94860D8FE183
S1131D209EE40197F1F700C000000895CF93DF937C
S1131D3080E00E94840FEC010E948C0ECE01DF91A2
S1131D40CF9108950E947F10813009F080E00895BA
S1131D5040E067E080E00E94950F089567E080E02E
S1131D600E947F10813009F080E00895CF93DF93C3
S1131D70C82FD62F0E946F1180ED0E94781180E049
S1131D800E9478118D2F0E9478118C2F0E94781157
S1131D900E947511DF91CF9108951F93CF93DF9324
S1131DA0182FD62FC42F0E946F1180ED0E94781136
S1131DB084E00E947811812F0E9478118D2F0E9457
S1131DC078118C2F0E9478110E947511DF91CF91A8
S1131DD01F910895EF92FF920F931F93CF93DF9378
S1131DE0EC018B017A010E946F1180ED0E94781141
S1131DF080E00E9478110E946F1181ED0E94781199
S1131E0081E00E947F11F701808381E00E947F11AD
S1131E10F801808380E00E947F1188830E947511FD
S1131E20DF91CF911F910F91FF90EF900895CF9381
S1131E30DF93EC0186E690E00E948A116881607A63
S1131E4070E086E690E00E94FC116881677041E0D2
S1131E5083E00E94950FDF91CF910895CF93DF9394
S1131E60EC016A3581F028F4662341F06E3161F1AA
S1131E7019C0683769F0643B81F014C060E070E019
S1131E808AEF92E425C060E070E08CE393E420C024
S1131E9060E070E080E593E41BC060E070E08AE7F6
S1131EA093E416C070E080E090E00E94F01427E311
S1131EB039E244E353E40E94E11325E935E648EBB3
S1131EC05FE30E944D1404C060E070E082E193E49B
S1131ED00E94BF142881207AE22FF0E09B0143EC9A
S1131EE059E0BF0186E690E00E941012DF91CF9185
S1131EF0089587B1806C87B986B1806886B986B148
S1131F00876086B980E0089597B1907E8F71892BA0
S1131F1087B986B1806486B9349BFECF24B185B17C
S1131F2090E0982F8827822B0895813021F130F09A
S1131F308230F1F1833009F458C00895413059F4E6
S1131F402AB381E090E002C0880F991F6A95E2F7F6
S1131F50822B8ABB08952AB381E090E002C0880FE7
S1131F60991F6A95E2F78095922F98239ABB9BB3A9
S1131F7089238BBB0895413059F427B381E090E065
S1131F8002C0880F991F6A95E2F7822B87BB0895D8
S1131F9027B381E090E002C0880F991F6A95E2F7A9
S1131FA08095922F982397BB98B3892388BB089573
S1131FB0413059F424B381E090E002C0880F991FA6
S1131FC06A95E2F7822B84BB089524B381E090E004
S1131FD002C0880F991F6A95E2F78095922F982383
S1131FE094BB95B3892385BB0895413059F421B33B
S1131FF081E090E002C0880F991F6A95E2F7822B76
S113200081BB089521B381E090E002C0880F991F3D
S11320106A95E2F78095922F982391BB92B3892316
S113202082BB0895813001F130F08230B1F1833008
S113203009F44CC0089541110CC02BB381E090E029
S113204002C0880F991F6A95E2F7809582238BBBA3
S113205008952BB381E090E002C0880F991F6A9520
S1132060E2F7822B8BBB089541110CC028B381E0A9
S113207090E002C0880F991F6A95E2F78095822349
S113208088BB089528B381E090E002C0880F991FAF
S11320906A95E2F7822B88BB089541110CC025B3E1
S11320A081E090E002C0880F991F6A95E2F780955D
S11320B0822385BB089525B381E090E002C0880F98
S11320C0991F6A95E2F7822B85BB089541110CC0D4
S11320D022B381E090E002C0880F991F6A95E2F76D
S11320E08095822382BB089522B381E090E002C0F0
S11320F0880F991F6A95E2F7822B82BB0895683096
S113210060F5813079F028F08230A9F08330E1F075
S113211026C089B390E002C0959587956A95E2F749
S11321208170089586B390E002C0959587956A956D
S1132130E2F78170089583B390E002C09595879586
S11321406A95E2F78170089580B390E002C0959596
S113215087956A95E2F78170089581E0089581E09A
S113216008958F3041F08E3151F081110BC08BB73F
S113217080648BBF08958BB780688BBF08958BB73D
S113218080628BBF08958F3099F18E3109F457C066
S1132190811161C04115510521F050938D07409381
S11321A08C07663081F018F4633031F0089569309B
S11321B089F06C30B1F0089585B78E7F85BF85B7FF
S11321C08D7F85BF089585B78E7F85BF85B7826073
S11321D085BF089585B7816085BF85B7826085BF57
S11321E0089585B78D7F85BF85B7816085BF0895C4
S11321F0653181F018F4623131F00895683189F065
S11322006B31B1F0089585B78B7F85BF85B7877F24
S113221085BF089585B78B7F85BF85B7886085BFE7
S1132220089585B7846085BF85B7886085BF0895A4
S113223085B7877F85BF85B7846085BF0895613280
S113224019F0643229F0089584B78F7B84BF089510
S113225084B7806484BF08958F3041F08E3151F08B
S113226081110BC08BB78F7B8BBF08958BB78F7792
S11322708BBF08958BB78F7D8BBF08958FB7806810
S11322808FBF08951F920F920FB60F9211242F93B0
S11322903F934F935F936F937F938F939F93AF93EA
S11322A0BF93EF93FF93E0918C07F0918D0709950D
S11322B0FF91EF91BF91AF919F918F917F916F911A
S11322C05F914F913F912F910F900FBE0F901F90F0
S11322D0189511B880E280B984E086BF089584EA35
S11322E086BF06B607FEFDCF089584E986BF08952C
S11322F083B984E886BF06B607FEFDCF089520E4BF
S1132300829FC0011124846886BF06B607FEFDCFF4
S113231083B10895FC018081813089F020F08230FE
S113232009F45EC0089593B78181892B83BF83B775
S1132330887F83BF93B78281892B83BF08959FB51C
S113234081818370892B8FBD2EB591819695969549
S1132350892F90E0880F991F880F991F880F991F64
S1132360822B8EBD82818230C1F028F4882349F00B
S1132370813061F02DC08430F1F0B0F0853011F17E
S113238027C010928F0710928E0722C081E090E040
S113239090938F0780938E071BC088E090E0909302
S11323A08F0780938E0714C080E490E090938F078A
S11323B080938E070DC080E091E090938F07809307
S11323C08E0706C080E094E090938F0780938E0779
S11323D08EB5887F8EBD9EB58281892B8EBD089572
S11323E095B58181892B85BD85B5887F85BD95B5DA
S11323F08281892B85BD0895FC018081813041F063
S113240018F0823049F0089583B7682B63BF0895AC
S11324108FB5682B6FBD089585B5682B65BD08958C
S11324208EB580618EBD8EB5877F8EBD8FB58E7F54
S11324308FBD8FB58D7F8FBD57BD46BD603211F006
S1132440603319F439BD28BD0895603811F0603C3B
S113245011F43BBD2ABD089525B730E1839FC00127
S11324601124822B85BF85B7806885BF089590931A
S1132470950780939407009709F46EC0FC0180814E
S11324808823D1F089B78F7789BF89B78F7B89BFBC
S113249082B5886082BD14BC15BC82B58570E9F72D
S11324A095B5E0919407F09195078281892B85BDBC
S11324B002B400FCFDCF0CC015BC95B5E0919407A7
S11324C0F09195078281892B85BD82B5877F82BD76
S11324D0E0919407F0919507E1818E2F90E0883088
S11324E09105D0F5FC01E65DFF4F0C949015109218
S11324F0930710929207089581E090E090939307D8
S113250080939207089588E090E0909393078093D6
S11325109207089580E290E0909393078093920746
S1132520089580E490E09093930780939207089530
S113253080E890E09093930780939207089580E059
S113254091E09093930780939207089580E094E03C
S113255090939307809392070895813041F018F087
S1132560823049F0089583B7887F83BF08958EB57C
S1132570887F8EBD089585B5887F85BDE0919407D9
S1132580F09195078081882319F002B400FCFDCFF7
S113259008951F920F920FB60F9211242F933F9319
S11325A04F935F936F937F938F939F93AF93BF9357
S11325B0EF93FF938091A10781111BC08091900735
S11325C09091910720919F073091A007821793075C
S11325D030F4019690939107809390073AC0E0916C
S11325E0D207F091D30709951092910710929007A2
S11325F030C08130F1F4809190079091910720913F
S11326009F073091A0078217930730F401969093A7
S11326109107809390071DC0E091CE07F091CF07FA
S11326200995109291071092900780E00E94AD12D4
S113263010C080919E07811107C0809196078CBFBE
S113264081E080939E0705C080919A078CBF109209
S11326509E0782E088BFFF91EF91BF91AF919F9158
S11326608F917F916F915F914F913F912F910F9037
S11326700FBE0F901F9018951F920F920FB60F92D6
S113268011242F933F934F935F936F937F938F9373
S11326909F93AF93BF93EF93FF93E091D007F09193
S11326A0D107099581E088BFFF91EF91BF91AF9168
S11326B09F918F917F916F915F914F913F912F9156
S11326C00F900FBE0F901F9018951F920F920FB688
S11326D00F9211242F933F934F935F936F937F93A4
S11326E08F939F93AF93BF93EF93FF93E091CA07A8
S11326F0F091CB07099584E088BFFF91EF91BF91DA
S1132700AF919F918F917F916F915F914F913F9185
S11327102F910F900FBE0F901F9018951F920F923C
S11327200FB60F9211242F933F934F935F936F93A0
S11327307F938F939F93AF93BF93EF93FF93E09116
S1132740CC07F091CD07099580E488BFFF91EF9104
S1132750BF91AF919F918F917F916F915F914F91B5
S11327603F912F910F900FBE0F901F9018951F92BD
S11327700F920FB60F9211242F933F934F935F93B1
S11327806F937F938F939F93AF93BF93EF93FF9335
S1132790E091C807F091C907099580E288BFFF91CD
S11327A0EF91BF91AF919F918F917F916F915F91C5
S11327B04F913F912F910F900FBE0F901F9018953E
S11327C05058BB27AA270E94F8130C9442150E9464
S11327D0341538F00E943B1520F039F49F3F19F46A
S11327E026F40C9431150EF4E095E7FB0C942B15AC
S11327F0E92F0E94531558F3BA1762077307840729
S1132800950720F079F4A6F50C9475150EF4E0956F
S11328100B2EBA2FA02D0B01B90190010C01CA0196
S1132820A0011124FF27591B99F0593F50F4503E41
S113283068F11A16F040A22F232F342F4427585F33
S1132840F3CF469537952795A795F0405395C9F74B
S11328507EF41F16BA0B620B730B840BBAF0915003
S1132860A1F0FF0FBB1F661F771F881FC2F70EC0A2
S1132870BA0F621F731F841F48F487957795679575
S1132880B795F7959E3F08F0B0CF9395880F08F061
S11328909927EE0F9795879508950E9461140C94DB
S11328A042150E943B1558F00E94341540F029F45B
S11328B05F3F29F00C942B1551110C9476150C9450
S11328C031150E94531568F39923B1F3552391F3FD
S11328D0951B550BBB27AA2762177307840738F08B
S11328E09F5F5F4F220F331F441FAA1FA9F335D0E8
S11328F00E2E3AF0E0E832D091505040E695001C9C
S1132900CAF72BD0FE2F29D0660F771F881FBB1F55
S1132910261737074807AB07B0E809F0BB0B802D33
S1132920BF01FF2793585F4F3AF09E3F510578F05F
S11329300C942B150C9476155F3FE4F3983ED4F376
S1132940869577956795B795F7959F5FC9F7880F33
S1132950911D9695879597F90895E1E0660F771F85
S1132960881FBB1F621773078407BA0720F0621B16
S1132970730B840BBA0BEE1F88F7E09508950E9441
S11329805B1588F09F5798F0B92F9927B751B0F08D
S1132990E1F0660F771F881F991F1AF0BA95C9F7DF
S11329A014C0B13091F00E947515B1E008950C94F3
S11329B07515672F782F8827B85F39F0B93FCCF3A6
S11329C0869577956795B395D9F73EF4909580955C
S11329D0709561957F4F8F4F9F4F0895E89409C07C
S11329E097FB3EF490958095709561957F4F8F4F3E
S11329F09F4F9923A9F0F92F96E9BB279395F69554
S1132A00879577956795B795F111F8CFFAF4BB0FD1
S1132A1011F460FF1BC06F5F7F4F8F4F9F4F16C035
S1132A20882311F096E911C0772321F09EE8872FBF
S1132A30762F05C0662371F096E8862F70E060E07B
S1132A402AF09A95660F771F881FDAF7880F9695F4
S1132A50879597F9089597F99F6780E870E060E09B
S1132A6008959FEF80EC089500240A941616170623
S1132A7018060906089500240A941216130614066B
S1132A8005060895092E0394000C11F4882352F0CE
S1132A90BB0F40F4BF2B11F460FF04C06F5F7F4F86
S1132AA08F4F9F4F089557FD9058440F551F59F06D
S1132AB05F3F71F04795880F97FB991F61F09F3F27
S1132AC079F087950895121613061406551FF2CF50
S1132AD04695F1DF08C0161617061806991FF1CFA0
S1132AE086957105610508940895E894BB276627C7
S1132AF07727CB0197F90895AA1BBB1B51E107C0A7
S1132B00AA1FBB1FA617B70710F0A61BB70B881F79
S1132B10991F5A95A9F780959095BC01CD01089508
S1132B20EE0FFF1F0590F491E02D0994FB01DC01E9
S1132B3002C001900D9241505040D8F70895AEE084
S1132B40B0E0E5EAF5E10C9460180D891E8986E091
S1132B508C831A8309838FEF9FE79E838D83AE0155
S1132B60475E5F4F6F89788DCE0101960E94C11533
S1132B70EF81F885E00FF11F10822E96E4E00C94AB
S1132B807C18ABE0B0E0E7ECF5E10C9452186C0172
S1132B907B018A01FC0117821682838181FFCCC1EB
S1132BA0CE0101963C01F6019381F70193FD8591D5
S1132BB093FF81917F01882309F4BAC1853239F4E6
S1132BC093FD859193FF81917F01853229F4B601AC
S1132BD090E00E94B817E7CF912C212C312CFFE113
S1132BE0F315D8F08B3279F038F4803279F08332EF
S1132BF0A1F4232D20611DC08D3261F0803369F46E
S1132C00232D216016C0832D8260382EE32DE460CD
S1132C103E2E2AC0F32DF8601DC037FC2DC020EDD8
S1132C20280F2A3040F08E32B9F436FC81C1232DAE
S1132C302064322E19C036FE06C08AE0989E200D0C
S1132C401124922E11C0EAE02E9E200D1124222E72
S1132C50F32DF0623F2E08C08C3621F4832D80685A
S1132C60382E02C0883641F4F70193FD859193FF15
S1132C7081917F018111B3CF982F9F7D955493301B
S1132C8028F40C5F1F4F9FE399830DC0833631F006
S1132C90833771F0833509F059C021C0F801808170
S1132CA089830E5F1F4F88248394912C530113C092
S1132CB02801F2E04F0E511CF801A080B18036FECD
S1132CC003C0692D70E002C06FEF7FEFC5010E9461
S1132CD0AD174C018201F32DFF773F2E16C028015A
S1132CE022E0420E511CF801A080B18036FE03C0E0
S1132CF0692D70E002C06FEF7FEFC5010E94A2173B
S1132D004C01F32DF0683F2E820133FC1BC0822D51
S1132D1090E088169906B0F4B60180E290E00E9433
S1132D20B8172A94F4CFF50137FC859137FE8191C9
S1132D305F01B60190E00E94B81721102A9421E0A7
S1132D40821A91088114910471F7E8C0843611F055
S1132D50893641F5F80137FE07C0608171818281AF
S1132D6093810C5F1F4F08C060817181072E000C96
S1132D70880B990B0E5F1F4FF32DFF763F2E97FFA5
S1132D8009C090958095709561957F4F8F4F9F4FA7
S1132D90F0683F2E2AE030E0A3010E94F417882E49
S1132DA0861845C0853731F4232D2F7EB22E2AE0B4
S1132DB030E025C0932D997FB92E8F36C1F018F4D9
S1132DC0883579F0B5C0803719F0883721F0B0C064
S1132DD0E92FE061BE2EB4FE0DC0FB2DF460BF2EC2
S1132DE009C034FE0AC0292F2660B22E06C028E08E
S1132DF030E005C020E130E002C020E132E0F8011B
S1132E00B7FE07C060817181828193810C5F1F4F7F
S1132E1006C06081718180E090E00E5F1F4FA301C6
S1132E200E94F417882E8618FB2DFF773F2E36FE5E
S1132E300DC0232D2E7FA22E891458F434FE0BC00E
S1132E4032FC09C0832D8E7EA82E05C0B82CA32C7D
S1132E5003C0B82C01C0B92CA4FE0FC0FE01E80DBC
S1132E60F11D8081803321F49A2D997EA92E09C009
S1132E70A2FE06C0B394B39404C08A2D867809F0E8
S1132E80B394A3FC11C0A0FE06C0B21488F4280CAD
S1132E90922C9B180EC0B21460F4B60180E290E04C
S1132EA00E94B817B394F7CFB21418F42B1802C0C9
S1132EB0982C212CA4FE10C0B60180E390E00E945F
S1132EC0B817A2FE17C0A1FC03C088E790E002C0B7
S1132ED088E590E0B6010CC08A2D867859F0A1FEF1
S1132EE002C08BE201C080E2A7FC8DE2B60190E053
S1132EF00E94B817891438F4B60180E390E00E9468
S1132F00B8179A94F7CF8A94F301E80DF11D8081E4
S1132F10B60190E00E94B8178110F5CF222009F481
S1132F2042CEB60180E290E00E94B8172A94F6CF10
S1132F30F6018681978102C08FEF9FEF2B96E2E125
S1132F400C946E18FC010590615070400110D8F784
S1132F50809590958E0F9F1F0895FC0161507040DD
S1132F6001900110D8F7809590958E0F9F1F0895BA
S1132F700F931F93CF93DF93FB01238121FD03C0A4
S1132F808FEF9FEF2CC022FF16C04681578124810A
S1132F9035814217530744F4A081B1819D012F5F0D
S1132FA03F4F318320838C93268137812F5F3F4F9E
S1132FB03783268314C08B01EC01FB010084F18567
S1132FC0E02D0995892BE1F6D80116968D919C91F7
S1132FD01797019617969C938E931697CE01DF91BF
S1132FE0CF911F910F910895FA01AA27283051F12A
S1132FF0203181F1E8946F936E7F6E5F7F4F8F4F26
S11330009F4FAF4FB1E03ED0B4E03CD0670F781F84
S1133010891F9A1FA11D680F791F8A1F911DA11D69
S11330206A0F711D811D911DA11D20D009F46894A2
S11330303F912AE0269F11243019305D3193DEF64A
S1133040CF010895462F4770405D4193B3E00FD000
S1133050C9F7F6CF462F4F70405D4A3318F0495DEB
S113306031FD4052419302D0A9F7EACFB4E0A695CE
S11330709795879577956795BA95C9F700976105F0
S1133080710508959B01AC010A2E06945795479546
S113309037952795BA95C9F7620F731F841F951F3B
S11330A0A01D08952F923F924F925F926F927F924C
S11330B08F929F92AF92BF92CF92DF92EF92FF9244
S11330C00F931F93CF93DF93CDB7DEB7CA1BDB0BF0
S11330D00FB6F894DEBF0FBECDBF09942A88398895
S11330E048885F846E847D848C849B84AA84B9849C
S11330F0C884DF80EE80FD800C811B81AA81B981A8
S1133100CE0FD11D0FB6F894DEBF0FBECDBFED01BB
S10931100895F894FFCFBE
S113311601C5000200050109034C69676874204172
S11331266374697661746564004C696768742044E5
S1133136652D416374697661746564004E6F20522F
S113314661696E00253032783A253032783A253076
S113315632780054696D652069733A2000656E748F
S1133166657220736C656570206D6F6465202D5FD4
S11331762D00657869742066726F6D20736C6565C1
S113318670206D6F6465205E5F5E006175746F20EC
S11331966C69676874696E67006175746F20776916
S11331A670657200525443204745542054494D4596
S11331B600656E74657220736C656570206D6F644E
S11331C6650068656C6C6F20746F20414441532020
S10D31D65E2D5E0049444C450000E4
S9030000FC
